{
  "contractName": "KittyCore",
  "abi": [
    {
      "inputs": [],
      "stateMutability": "nonpayable",
      "type": "constructor"
    },
    {
      "anonymous": false,
      "inputs": [
        {
          "indexed": false,
          "internalType": "address",
          "name": "owner",
          "type": "address"
        },
        {
          "indexed": false,
          "internalType": "address",
          "name": "approved",
          "type": "address"
        },
        {
          "indexed": false,
          "internalType": "uint256",
          "name": "tokenId",
          "type": "uint256"
        }
      ],
      "name": "Approval",
      "type": "event"
    },
    {
      "anonymous": false,
      "inputs": [
        {
          "indexed": false,
          "internalType": "address",
          "name": "owner",
          "type": "address"
        },
        {
          "indexed": false,
          "internalType": "uint256",
          "name": "kittyId",
          "type": "uint256"
        },
        {
          "indexed": false,
          "internalType": "uint256",
          "name": "mumId",
          "type": "uint256"
        },
        {
          "indexed": false,
          "internalType": "uint256",
          "name": "dadId",
          "type": "uint256"
        },
        {
          "indexed": false,
          "internalType": "uint256",
          "name": "genes",
          "type": "uint256"
        }
      ],
      "name": "Birth",
      "type": "event"
    },
    {
      "anonymous": false,
      "inputs": [
        {
          "indexed": false,
          "internalType": "string",
          "name": "TxType",
          "type": "string"
        },
        {
          "indexed": false,
          "internalType": "address",
          "name": "owner",
          "type": "address"
        },
        {
          "indexed": false,
          "internalType": "uint256",
          "name": "tokenId",
          "type": "uint256"
        }
      ],
      "name": "MarketTransaction",
      "type": "event"
    },
    {
      "anonymous": false,
      "inputs": [
        {
          "indexed": false,
          "internalType": "address",
          "name": "from",
          "type": "address"
        },
        {
          "indexed": false,
          "internalType": "address",
          "name": "to",
          "type": "address"
        },
        {
          "indexed": false,
          "internalType": "uint256",
          "name": "tokenId",
          "type": "uint256"
        }
      ],
      "name": "Transfer",
      "type": "event"
    },
    {
      "inputs": [],
      "name": "CREATION_LIMIT_GEN0",
      "outputs": [
        {
          "internalType": "uint256",
          "name": "",
          "type": "uint256"
        }
      ],
      "stateMutability": "view",
      "type": "function"
    },
    {
      "inputs": [
        {
          "internalType": "address",
          "name": "_to",
          "type": "address"
        },
        {
          "internalType": "uint256",
          "name": "_tokenId",
          "type": "uint256"
        }
      ],
      "name": "approve",
      "outputs": [],
      "stateMutability": "nonpayable",
      "type": "function"
    },
    {
      "inputs": [
        {
          "internalType": "address",
          "name": "_owner",
          "type": "address"
        }
      ],
      "name": "balanceOf",
      "outputs": [
        {
          "internalType": "uint256",
          "name": "count",
          "type": "uint256"
        }
      ],
      "stateMutability": "view",
      "type": "function"
    },
    {
      "inputs": [
        {
          "internalType": "uint256",
          "name": "_tokenId",
          "type": "uint256"
        }
      ],
      "name": "buyKitty",
      "outputs": [],
      "stateMutability": "payable",
      "type": "function"
    },
    {
      "inputs": [],
      "name": "gen0Counter",
      "outputs": [
        {
          "internalType": "uint256",
          "name": "",
          "type": "uint256"
        }
      ],
      "stateMutability": "view",
      "type": "function"
    },
    {
      "inputs": [],
      "name": "getAllTokenOnSale",
      "outputs": [
        {
          "internalType": "uint256[]",
          "name": "listOfToken",
          "type": "uint256[]"
        }
      ],
      "stateMutability": "view",
      "type": "function"
    },
    {
      "inputs": [
        {
          "internalType": "uint256",
          "name": "_tokenId",
          "type": "uint256"
        }
      ],
      "name": "getOffer",
      "outputs": [
        {
          "internalType": "address",
          "name": "seller",
          "type": "address"
        },
        {
          "internalType": "uint256",
          "name": "price",
          "type": "uint256"
        },
        {
          "internalType": "uint256",
          "name": "tokenId",
          "type": "uint256"
        }
      ],
      "stateMutability": "view",
      "type": "function"
    },
    {
      "inputs": [
        {
          "internalType": "uint256",
          "name": "",
          "type": "uint256"
        }
      ],
      "name": "kittyIndexToApproved",
      "outputs": [
        {
          "internalType": "address",
          "name": "",
          "type": "address"
        }
      ],
      "stateMutability": "view",
      "type": "function"
    },
    {
      "inputs": [
        {
          "internalType": "uint256",
          "name": "",
          "type": "uint256"
        }
      ],
      "name": "kittyIndexToOwner",
      "outputs": [
        {
          "internalType": "address",
          "name": "",
          "type": "address"
        }
      ],
      "stateMutability": "view",
      "type": "function"
    },
    {
      "inputs": [],
      "name": "name",
      "outputs": [
        {
          "internalType": "string",
          "name": "",
          "type": "string"
        }
      ],
      "stateMutability": "view",
      "type": "function"
    },
    {
      "inputs": [],
      "name": "owner",
      "outputs": [
        {
          "internalType": "address",
          "name": "",
          "type": "address"
        }
      ],
      "stateMutability": "view",
      "type": "function"
    },
    {
      "inputs": [
        {
          "internalType": "uint256",
          "name": "_tokenId",
          "type": "uint256"
        }
      ],
      "name": "ownerOf",
      "outputs": [
        {
          "internalType": "address",
          "name": "owner",
          "type": "address"
        }
      ],
      "stateMutability": "view",
      "type": "function"
    },
    {
      "inputs": [
        {
          "internalType": "uint256",
          "name": "_tokenId",
          "type": "uint256"
        }
      ],
      "name": "removeOffer",
      "outputs": [],
      "stateMutability": "nonpayable",
      "type": "function"
    },
    {
      "inputs": [
        {
          "internalType": "uint256",
          "name": "_price",
          "type": "uint256"
        },
        {
          "internalType": "uint256",
          "name": "_tokenId",
          "type": "uint256"
        }
      ],
      "name": "setOffer",
      "outputs": [],
      "stateMutability": "nonpayable",
      "type": "function"
    },
    {
      "inputs": [
        {
          "internalType": "bytes4",
          "name": "_interfaceID",
          "type": "bytes4"
        }
      ],
      "name": "supportsInterface",
      "outputs": [
        {
          "internalType": "bool",
          "name": "",
          "type": "bool"
        }
      ],
      "stateMutability": "pure",
      "type": "function"
    },
    {
      "inputs": [],
      "name": "symbol",
      "outputs": [
        {
          "internalType": "string",
          "name": "",
          "type": "string"
        }
      ],
      "stateMutability": "view",
      "type": "function"
    },
    {
      "inputs": [
        {
          "internalType": "address",
          "name": "_owner",
          "type": "address"
        }
      ],
      "name": "tokensOfOwner",
      "outputs": [
        {
          "internalType": "uint256[]",
          "name": "ownerTokens",
          "type": "uint256[]"
        }
      ],
      "stateMutability": "view",
      "type": "function"
    },
    {
      "inputs": [],
      "name": "totalSupply",
      "outputs": [
        {
          "internalType": "uint256",
          "name": "",
          "type": "uint256"
        }
      ],
      "stateMutability": "view",
      "type": "function"
    },
    {
      "inputs": [
        {
          "internalType": "address",
          "name": "_to",
          "type": "address"
        },
        {
          "internalType": "uint256",
          "name": "_tokenId",
          "type": "uint256"
        }
      ],
      "name": "transfer",
      "outputs": [],
      "stateMutability": "nonpayable",
      "type": "function"
    },
    {
      "inputs": [
        {
          "internalType": "address",
          "name": "_from",
          "type": "address"
        },
        {
          "internalType": "address",
          "name": "_to",
          "type": "address"
        },
        {
          "internalType": "uint256",
          "name": "_tokenId",
          "type": "uint256"
        }
      ],
      "name": "transferFrom",
      "outputs": [],
      "stateMutability": "nonpayable",
      "type": "function"
    },
    {
      "inputs": [
        {
          "internalType": "address",
          "name": "newOwner",
          "type": "address"
        }
      ],
      "name": "transferOwnership",
      "outputs": [],
      "stateMutability": "nonpayable",
      "type": "function"
    },
    {
      "inputs": [
        {
          "internalType": "uint256",
          "name": "_dadId",
          "type": "uint256"
        },
        {
          "internalType": "uint256",
          "name": "_mumId",
          "type": "uint256"
        }
      ],
      "name": "Breeding",
      "outputs": [],
      "stateMutability": "nonpayable",
      "type": "function"
    },
    {
      "inputs": [
        {
          "internalType": "uint256",
          "name": "_genes",
          "type": "uint256"
        }
      ],
      "name": "createKittyGen0",
      "outputs": [],
      "stateMutability": "nonpayable",
      "type": "function"
    },
    {
      "inputs": [
        {
          "internalType": "uint256",
          "name": "_id",
          "type": "uint256"
        }
      ],
      "name": "getKitty",
      "outputs": [
        {
          "internalType": "uint256",
          "name": "genes",
          "type": "uint256"
        },
        {
          "internalType": "uint256",
          "name": "birthTime",
          "type": "uint256"
        },
        {
          "internalType": "uint256",
          "name": "mumId",
          "type": "uint256"
        },
        {
          "internalType": "uint256",
          "name": "dadId",
          "type": "uint256"
        },
        {
          "internalType": "uint256",
          "name": "generation",
          "type": "uint256"
        }
      ],
      "stateMutability": "view",
      "type": "function"
    }
  ],
  "bytecode": "0x60806040523480156200001157600080fd5b50600080546001600160a01b031916331781556200003390808080806200003a565b5062000353565b6040805160a0810182528381526001600160401b034281166020830190815263ffffffff808a169484019485528881166060850190815261ffff808a16608087019081526001805480820182556000828152895160029092027fb10e2d527612073b26eecdfd717e6a320cf44b4afac2b0732d9fcbe2b7fa0cf681019290925596517fb10e2d527612073b26eecdfd717e6a320cf44b4afac2b0732d9fcbe2b7fa0cf790910180549a5195519351909416600160801b0261ffff60801b199387166c01000000000000000000000000029390931665ffffffffffff60601b199590961668010000000000000000026001600160601b0319909a1697169690961797909717919091169190911794909417909355805483916200015c91620002eb565b90508063ffffffff1681146200017157600080fd5b604080830151606080850151855184516001600160a01b038a1681526020810187905263ffffffff9485169581019590955292169083015260808201527f0a5311bd2a6608f08a180df2ee7c5946819a649b204b554bb8e39825b2c50ad59060a00160405180910390a1620001e960008583620001f4565b979650505050505050565b6001600160a01b03821660009081526003602052604081208054916200021a836200031f565b9091555050600081815260026020526040902080546001600160a01b0319166001600160a01b03848116919091179091558316156200029b576001600160a01b0383166000908152600360205260408120805491620002798362000305565b9091555050600081815260046020526040902080546001600160a01b03191690555b604080516001600160a01b038086168252841660208201529081018290527fddf252ad1be2c89b69c2b068fc378daa952ba7f163c4a11628f55a4df523b3ef9060600160405180910390a1505050565b6000828210156200030057620003006200033d565b500390565b6000816200031757620003176200033d565b506000190190565b60006000198214156200033657620003366200033d565b5060010190565b634e487b7160e01b600052601160045260246000fd5b611b0b80620003636000396000f3fe60806040526004361061018b5760003560e01c8063941b055b116100d6578063b48343301161007f578063e98b7f4d11610059578063e98b7f4d14610536578063ef5e94aa1461057e578063f2fde38b1461059457600080fd5b8063b4834330146104e1578063b921a400146104f6578063d5a776ca1461051657600080fd5b8063a45f4bfc116100b0578063a45f4bfc14610478578063a9059cbb146104ae578063ae5310f6146104ce57600080fd5b8063941b055b146103ef57806395a0f9c71461040f57806395d89b411461042f57600080fd5b8063481af3d31161013857806370a082311161011257806370a08231146103795780638462151c146103af5780638da5cb5b146103cf57600080fd5b8063481af3d3146102e957806349b3709f146103375780636352211e1461035957600080fd5b806318160ddd1161016957806318160ddd1461023d57806323b872dd146102605780634579268a1461028057600080fd5b806301ffc9a71461019057806306fdde03146101c5578063095ea7b31461021b575b600080fd5b34801561019c57600080fd5b506101b06101ab36600461189d565b6105b4565b60405190151581526020015b60405180910390f35b3480156101d157600080fd5b5061020e6040518060400160405280600b81526020017f4976616e4b69747469657300000000000000000000000000000000000000000081525081565b6040516101bc919061195e565b34801561022757600080fd5b5061023b610236366004611873565b61064d565b005b34801561024957600080fd5b506102526106e5565b6040519081526020016101bc565b34801561026c57600080fd5b5061023b61027b366004611837565b6106fa565b34801561028c57600080fd5b506102c461029b3660046118df565b6000908152600660205260409020805460018201546002909201546001600160a01b0390911692565b604080516001600160a01b0390941684526020840192909252908201526060016101bc565b3480156102f557600080fd5b5061031f6103043660046118df565b6004602052600090815260409020546001600160a01b031681565b6040516001600160a01b0390911681526020016101bc565b34801561034357600080fd5b5061034c610766565b6040516101bc919061191a565b34801561036557600080fd5b5061031f6103743660046118df565b610860565b34801561038557600080fd5b50610252610394366004611815565b6001600160a01b031660009081526003602052604090205490565b3480156103bb57600080fd5b5061034c6103ca366004611815565b610887565b3480156103db57600080fd5b5060005461031f906001600160a01b031681565b3480156103fb57600080fd5b5061023b61040a3660046118f8565b610991565b34801561041b57600080fd5b5061023b61042a3660046118df565b610c2d565b34801561043b57600080fd5b5061020e6040518060400160405280600281526020017f434b00000000000000000000000000000000000000000000000000000000000081525081565b34801561048457600080fd5b5061031f6104933660046118df565b6002602052600090815260409020546001600160a01b031681565b3480156104ba57600080fd5b5061023b6104c9366004611873565b610e2d565b61023b6104dc3660046118df565b610e72565b3480156104ed57600080fd5b50610252600a81565b34801561050257600080fd5b5061023b6105113660046118f8565b611034565b34801561052257600080fd5b5061023b6105313660046118df565b611327565b34801561054257600080fd5b506105566105513660046118df565b611387565b604080519586526020860194909452928401919091526060830152608082015260a0016101bc565b34801561058a57600080fd5b5061025260085481565b3480156105a057600080fd5b5061023b6105af366004611815565b61146f565b60007fffffffff0000000000000000000000000000000000000000000000000000000082167f01ffc9a700000000000000000000000000000000000000000000000000000000148061064757507fffffffff0000000000000000000000000000000000000000000000000000000082167f9a20483d00000000000000000000000000000000000000000000000000000000145b92915050565b6000818152600260205260409020546001600160a01b0316331461067057600080fd5b600081815260046020526040902080546001600160a01b0319166001600160a01b038416179055604080513381526001600160a01b03841660208201529081018290527f8c5be1e5ebec7d5bd14f71427d1e84f3dd0314c0f7b2291e5b200ac8c7c3b925906060015b60405180910390a15050565b600180546000916106f5916119fe565b905090565b6001600160a01b03821661070d57600080fd5b6000818152600460205260409020546001600160a01b0316331461073057600080fd5b6000818152600260205260409020546001600160a01b0384811691161461075657600080fd5b6107618383836114b4565b505050565b6005546060908061078557505060408051600081526020810190915290565b60008167ffffffffffffffff8111156107a0576107a0611abf565b6040519080825280602002602001820160405280156107c9578160200160208202803683370190505b50905060005b8281101561085957600581815481106107ea576107ea611aa9565b906000526020600020906003020160010154600014610847576005818154811061081657610816611aa9565b90600052602060002090600302016002015482828151811061083a5761083a611aa9565b6020026020010181815250505b8061085181611a2c565b9150506107cf565b5092915050565b6000818152600260205260409020546001600160a01b03168061088257600080fd5b919050565b606060006108aa836001600160a01b031660009081526003602052604090205490565b9050806108c7575050604080516000815260208101909152919050565b60008167ffffffffffffffff8111156108e2576108e2611abf565b60405190808252806020026020018201604052801561090b578160200160208202803683370190505b50905060006109186106e5565b9050600060015b828111610986576000818152600260205260409020546001600160a01b0388811691161415610974578084838151811061095b5761095b611aa9565b60209081029190910101528161097081611a2c565b9250505b8061097e81611a2c565b91505061091f565b509195945050505050565b661ff973cafa80008211610a125760405162461bcd60e51b815260206004820152602560248201527f4361742070726963652073686f756c642062652067726561746572207468616e60448201527f20302e303100000000000000000000000000000000000000000000000000000060648201526084015b60405180910390fd5b60008181526006602052604090206001015415610a975760405162461bcd60e51b815260206004820152602560248201527f596f752063616e27742073656c6c207477696365207468652073616d65206f6660448201527f66657273200000000000000000000000000000000000000000000000000000006064820152608401610a09565b610aa1308261064d565b60408051606081018252338152602080820185815282840185815260008681526006909352938220835181546001600160a01b039182166001600160a01b031991821617835583516001808501919091558751600290940193909355600580548085018255818752875160039091027f036b6384b5eca791c62761152d0c79bb0604c104a5fb6f4eb0703f3154bb3db08101805492909516919093161790925592517f036b6384b5eca791c62761152d0c79bb0604c104a5fb6f4eb0703f3154bb3db184015594517f036b6384b5eca791c62761152d0c79bb0604c104a5fb6f4eb0703f3154bb3db290920191909155925491929091610ba191906119fe565b60008481526007602090815260409182902083905581516060808252600c908201527f437265617465206f666665720000000000000000000000000000000000000000608082015233918101919091529081018590529091507fd99e4fad9ad6313b1feb588fa8e605e3a9873172f2024330c35dd2b4041a43869060a00160405180910390a150505050565b6000818152600260205260409020546001600160a01b03163314610c935760405162461bcd60e51b815260206004820152601e60248201527f546865207573657220646f65736e2774206f776e2074686520746f6b656e00006044820152606401610a09565b600081815260066020908152604091829020825160608101845281546001600160a01b0316808252600183015493820193909352600290910154928101929092523314610d485760405162461bcd60e51b815260206004820152603860248201527f596f752073686f756c64206f776e20746865206b6974747920746f206265206160448201527f626c6520746f2072656d6f76652074686973206f6666657200000000000000006064820152608401610a09565b600082815260076020526040902054600580549091908110610d6c57610d6c611aa9565b60009182526020808320600390920290910180546001600160a01b0319908116825560018083018590556002928301859055868552600690935260408420805490911681559182018390550155610dc2826115a6565b604080516060808252600c908201527f52656d6f7665206f66666572000000000000000000000000000000000000000060808201523360208201529081018390527fd99e4fad9ad6313b1feb588fa8e605e3a9873172f2024330c35dd2b4041a43869060a0016106d9565b6001600160a01b038216610e4057600080fd5b6000818152600260205260409020546001600160a01b03163314610e6357600080fd5b610e6e3383836114b4565b5050565b600081815260066020908152604091829020825160608101845281546001600160a01b031681526001820154928101839052600290910154928101929092523414610eff5760405162461bcd60e51b815260206004820152601860248201527f546865207072696365206973206e6f7420636f727265637400000000000000006044820152606401610a09565b600082815260076020526040902054600580549091908110610f2357610f23611aa9565b6000918252602080832060039290920290910180546001600160a01b0319908116825560018083018590556002928301859055868552600684526040808620805484168155918201869055920184905560049092529091208054339216821790558151610f9091846106fa565b80516040516001600160a01b03909116903480156108fc02916000818181858888f19350505050158015610fc8573d6000803e3d6000fd5b506040805160608082526003908201527f427579000000000000000000000000000000000000000000000000000000000060808201523360208201529081018390527fd99e4fad9ad6313b1feb588fa8e605e3a9873172f2024330c35dd2b4041a43869060a0016106d9565b6000828152600260205260409020546001600160a01b0316331461109a5760405162461bcd60e51b815260206004820152601e60248201527f546865207573657220646f65736e2774206f776e2074686520746f6b656e00006044820152606401610a09565b6000818152600260205260409020546001600160a01b031633146111005760405162461bcd60e51b815260206004820152601e60248201527f546865207573657220646f65736e2774206f776e2074686520746f6b656e00006044820152606401610a09565b818114156111505760405162461bcd60e51b815260206004820152601f60248201527f546865206361742063616e277420726570726f647563652068696d73656c66006044820152606401610a09565b60008061115c84611387565b9450505050915060008061116f85611387565b9450505050915060006111806117df565b6007600061118f60ff42611a47565b905060015b608081116112305781811660ff16156111d1576111b2606488611a47565b60ff168484600881106111c7576111c7611aa9565b60200201526111f7565b6111dc60648a611a47565b60ff168484600881106111f1576111f1611aa9565b60200201525b6112026064886119cb565b965061120f60648a6119cb565b985061121c6001846119fe565b92506112298160026119df565b9050611194565b600061123d600784611a5b565b905061124a606384611a5b565b60ff16858260ff166008811061126257611262611aa9565b6020020152600091505b60088210156112c05784826008811061128757611287611aa9565b602002015161129690876119b3565b9550816007146112ae576112ab6064876119df565b95505b816112b881611a2c565b92505061126c565b6000878a10156112e9576112d58860016119b3565b90506112e26002826119cb565b905061130a565b878a11156112fc576112d58a60016119b3565b6113078860016119b3565b90505b6113178c8e838a336115e7565b5050505050505050505050505050565b6000546001600160a01b0316331461133e57600080fd5b600a6008541061134d57600080fd5b6008805490600061135d83611a2c565b91905055506000611373600080600085336115e7565b9050610e6e6702c68af0bb14000082610991565b600080600080600080600187815481106113a3576113a3611aa9565b60009182526020909120600290910201600181015490915067ffffffffffffffff166114115760405162461bcd60e51b815260206004820152601760248201527f746865206b6974747920646f65736e27742065786973740000000000000000006044820152606401610a09565b600181015490549767ffffffffffffffff8216975068010000000000000000820463ffffffff90811697506c01000000000000000000000000830416955070010000000000000000000000000000000090910461ffff169350915050565b6000546001600160a01b0316331461148657600080fd5b6001600160a01b038116156114b157600080546001600160a01b0319166001600160a01b0383161790555b50565b6001600160a01b03821660009081526003602052604081208054916114d883611a2c565b9091555050600081815260026020526040902080546001600160a01b0319166001600160a01b0384811691909117909155831615611556576001600160a01b038316600090815260036020526040812080549161153483611a15565b9091555050600081815260046020526040902080546001600160a01b03191690555b604080516001600160a01b038086168252841660208201529081018290527fddf252ad1be2c89b69c2b068fc378daa952ba7f163c4a11628f55a4df523b3ef9060600160405180910390a1505050565b6000818152600260205260409020546001600160a01b031633146115c957600080fd5b600090815260046020526040902080546001600160a01b0319169055565b6040805160a08101825283815267ffffffffffffffff4281166020830190815263ffffffff808a169484019485528881166060850190815261ffff808a16608087019081526001805480820182556000828152895160029092027fb10e2d527612073b26eecdfd717e6a320cf44b4afac2b0732d9fcbe2b7fa0cf681019290925596517fb10e2d527612073b26eecdfd717e6a320cf44b4afac2b0732d9fcbe2b7fa0cf790910180549a5195519351909416700100000000000000000000000000000000027fffffffffffffffffffffffffffff0000ffffffffffffffffffffffffffffffff9387166c0100000000000000000000000002939093167fffffffffffffffffffffffffffff000000000000ffffffffffffffffffffffff9590961668010000000000000000026bffffffffffffffffffffffff19909a16971696909617979097179190911691909117949094179093558054839161174a916119fe565b90508063ffffffff16811461175e57600080fd5b604080830151606080850151855184516001600160a01b038a1681526020810187905263ffffffff9485169581019590955292169083015260808201527f0a5311bd2a6608f08a180df2ee7c5946819a649b204b554bb8e39825b2c50ad59060a00160405180910390a16117d4600085836114b4565b979650505050505050565b6040518061010001604052806008906020820280368337509192915050565b80356001600160a01b038116811461088257600080fd5b60006020828403121561182757600080fd5b611830826117fe565b9392505050565b60008060006060848603121561184c57600080fd5b611855846117fe565b9250611863602085016117fe565b9150604084013590509250925092565b6000806040838503121561188657600080fd5b61188f836117fe565b946020939093013593505050565b6000602082840312156118af57600080fd5b81357fffffffff000000000000000000000000000000000000000000000000000000008116811461183057600080fd5b6000602082840312156118f157600080fd5b5035919050565b6000806040838503121561190b57600080fd5b50508035926020909101359150565b6020808252825182820181905260009190848201906040850190845b8181101561195257835183529284019291840191600101611936565b50909695505050505050565b600060208083528351808285015260005b8181101561198b5785810183015185820160400152820161196f565b8181111561199d576000604083870101525b50601f01601f1916929092016040019392505050565b600082198211156119c6576119c6611a7d565b500190565b6000826119da576119da611a93565b500490565b60008160001904831182151516156119f9576119f9611a7d565b500290565b600082821015611a1057611a10611a7d565b500390565b600081611a2457611a24611a7d565b506000190190565b6000600019821415611a4057611a40611a7d565b5060010190565b600082611a5657611a56611a93565b500690565b600060ff831680611a6e57611a6e611a93565b8060ff84160691505092915050565b634e487b7160e01b600052601160045260246000fd5b634e487b7160e01b600052601260045260246000fd5b634e487b7160e01b600052603260045260246000fd5b634e487b7160e01b600052604160045260246000fdfea2646970667358221220c156c0c4c9282474fe16fe940114ffff8f521a651fc4881ca503abc767aaf6b264736f6c63430008060033",
  "immutableReferences": {},
  "source": "import \"./utils/Ownable.sol\";\r\nimport \"./KittyMarketPlace.sol\";\r\n\r\npragma solidity ^0.8.0;\r\n// SPDX-License-Identifier: GPL-3.0\r\n\r\ncontract KittyCore is Ownable, KittyMarketPlace {\r\n\r\n  uint256 public constant CREATION_LIMIT_GEN0 = 10;\r\n\r\n  // Counts the number of cats the contract owner has created.\r\n  uint256 public gen0Counter;\r\n\r\n  constructor() {\r\n    // We are creating the first kitty at index 0  \r\n    _createKitty(0, 0, 0, uint256(0), address(0));\r\n  }\r\n\r\n/*\r\n*       we get a \r\n*\r\n*       Basic binary operation\r\n*\r\n*       >>> '{0:08b}'.format(255 & 1)\r\n*       '00000001'\r\n*       >>> '{0:08b}'.format(255 & 2)\r\n*       '00000010'\r\n*       >>> '{0:08b}'.format(255 & 4)\r\n*       '00000100'\r\n*       >>> '{0:08b}'.format(255 & 8)\r\n*       '00001000'\r\n*       >>> '{0:08b}'.format(255 & 16)\r\n*       '00010000'\r\n*       >>> '{0:08b}'.format(255 & 32)\r\n*       '00100000'\r\n*       >>> '{0:08b}'.format(255 & 64)\r\n*       '01000000'\r\n*       >>> '{0:08b}'.format(255 & 128)\r\n*       '10000000'\r\n*\r\n*       So we use a mask on our random number to check if we will use the mumID or the dadId\r\n*\r\n*       For example 205 is 11001101 in binary So\r\n*       mum - mum - dad -dad -mum - mum - dad - mum\r\n*\r\n*/\r\n  function Breeding(uint256 _dadId, uint256 _mumId) public {\r\n      require(_owns(msg.sender, _dadId), \"The user doesn't own the token\");\r\n      require(_owns(msg.sender, _mumId), \"The user doesn't own the token\");\r\n\r\n      require(_mumId != _dadId, \"The cat can't reproduce himself\");\r\n\r\n      ( uint256 Dadgenes,,,,uint256 DadGeneration ) = getKitty(_dadId);\r\n\r\n      ( uint256 Mumgenes,,,,uint256 MumGeneration ) = getKitty(_mumId);\r\n\r\n      uint256 geneKid;\r\n      uint256 [8] memory geneArray;\r\n      uint256 index = 7;\r\n      uint8 random = uint8(block.timestamp % 255);\r\n      uint256 i = 0;\r\n      \r\n      for(i = 1; i <= 128; i=i*2){\r\n\r\n          /* We are */\r\n          if(random & i != 0){\r\n              geneArray[index] = uint8(Mumgenes % 100);\r\n          } else {\r\n              geneArray[index] = uint8(Dadgenes % 100);\r\n          }\r\n          Mumgenes /= 100;\r\n          Dadgenes /= 100;\r\n        index -= 1;\r\n      }\r\n     \r\n      /* Add a random parameter in a random place */\r\n      uint8 newGeneIndex =  random % 7;\r\n      geneArray[newGeneIndex] = random % 99;\r\n\r\n      /* We reverse the DNa in the right order */\r\n      for (i = 0 ; i < 8; i++ ){\r\n        geneKid += geneArray[i];\r\n        if(i != 7){\r\n            geneKid *= 100;\r\n        }\r\n      }\r\n\r\n      uint256 kidGen = 0;\r\n      if (DadGeneration < MumGeneration){\r\n        kidGen = MumGeneration + 1;\r\n        kidGen /= 2;\r\n      } else if (DadGeneration > MumGeneration){\r\n        kidGen = DadGeneration + 1;\r\n        kidGen /= 2;\r\n      } else{\r\n        kidGen = MumGeneration + 1;\r\n      }\r\n\r\n      _createKitty(_mumId, _dadId, kidGen, geneKid, msg.sender);\r\n  }\r\n\r\n\r\n  function createKittyGen0(uint256 _genes) public onlyOwner {\r\n    require(gen0Counter < CREATION_LIMIT_GEN0);\r\n\r\n    gen0Counter++;\r\n\r\n    // Gen0 have no owners they are own by the contract\r\n    uint256 tokenId = _createKitty(0, 0, 0, _genes, msg.sender);\r\n    setOffer(0.2 ether, tokenId);\r\n  }\r\n\r\n  function getKitty(uint256 _id)\r\n    public\r\n    view\r\n    returns (\r\n    uint256 genes,\r\n    uint256 birthTime,\r\n    uint256 mumId,\r\n    uint256 dadId,\r\n    uint256 generation\r\n  ) {\r\n    Kitty storage kitty = kitties[_id];\r\n\r\n    require(kitty.birthTime > 0, \"the kitty doesn't exist\");\r\n\r\n    birthTime = uint256(kitty.birthTime);\r\n    mumId = uint256(kitty.mumId);\r\n    dadId = uint256(kitty.dadId);\r\n    generation = uint256(kitty.generation);\r\n    genes = kitty.genes;\r\n  }\r\n}",
  "sourcePath": "C:\\Users\\benX\\Documents\\ethereum_course_advanced\\academy-cryptokitties\\contracts\\KittyCore.sol",
  "compiler": {
    "name": "solc",
    "version": "0.8.6+commit.11564f7e.Emscripten.clang"
  },
  "schemaVersion": "3.4.2",
  "updatedAt": "2021-08-09T18:47:58.070Z",
  "devdoc": {
    "kind": "dev",
    "methods": {
      "transferOwnership(address)": {
        "details": "Allows the current owner to transfer control of the contract to a newOwner.",
        "params": {
          "newOwner": "The address to transfer ownership to."
        }
      }
    },
    "version": 1
  },
  "userdoc": {
    "kind": "user",
    "methods": {},
    "version": 1
  }
}