{
  "contractName": "KittyOwnership",
  "abi": [
    {
      "anonymous": false,
      "inputs": [
        {
          "indexed": false,
          "internalType": "address",
          "name": "owner",
          "type": "address"
        },
        {
          "indexed": false,
          "internalType": "address",
          "name": "approved",
          "type": "address"
        },
        {
          "indexed": false,
          "internalType": "uint256",
          "name": "tokenId",
          "type": "uint256"
        }
      ],
      "name": "Approval",
      "type": "event"
    },
    {
      "anonymous": false,
      "inputs": [
        {
          "indexed": false,
          "internalType": "address",
          "name": "owner",
          "type": "address"
        },
        {
          "indexed": false,
          "internalType": "uint256",
          "name": "kittyId",
          "type": "uint256"
        },
        {
          "indexed": false,
          "internalType": "uint256",
          "name": "mumId",
          "type": "uint256"
        },
        {
          "indexed": false,
          "internalType": "uint256",
          "name": "dadId",
          "type": "uint256"
        },
        {
          "indexed": false,
          "internalType": "uint256",
          "name": "genes",
          "type": "uint256"
        }
      ],
      "name": "Birth",
      "type": "event"
    },
    {
      "anonymous": false,
      "inputs": [
        {
          "indexed": false,
          "internalType": "address",
          "name": "from",
          "type": "address"
        },
        {
          "indexed": false,
          "internalType": "address",
          "name": "to",
          "type": "address"
        },
        {
          "indexed": false,
          "internalType": "uint256",
          "name": "tokenId",
          "type": "uint256"
        }
      ],
      "name": "Transfer",
      "type": "event"
    },
    {
      "inputs": [
        {
          "internalType": "uint256",
          "name": "",
          "type": "uint256"
        }
      ],
      "name": "kittyIndexToApproved",
      "outputs": [
        {
          "internalType": "address",
          "name": "",
          "type": "address"
        }
      ],
      "stateMutability": "view",
      "type": "function"
    },
    {
      "inputs": [
        {
          "internalType": "uint256",
          "name": "",
          "type": "uint256"
        }
      ],
      "name": "kittyIndexToOwner",
      "outputs": [
        {
          "internalType": "address",
          "name": "",
          "type": "address"
        }
      ],
      "stateMutability": "view",
      "type": "function"
    },
    {
      "inputs": [],
      "name": "name",
      "outputs": [
        {
          "internalType": "string",
          "name": "",
          "type": "string"
        }
      ],
      "stateMutability": "view",
      "type": "function"
    },
    {
      "inputs": [],
      "name": "symbol",
      "outputs": [
        {
          "internalType": "string",
          "name": "",
          "type": "string"
        }
      ],
      "stateMutability": "view",
      "type": "function"
    },
    {
      "inputs": [
        {
          "internalType": "bytes4",
          "name": "_interfaceID",
          "type": "bytes4"
        }
      ],
      "name": "supportsInterface",
      "outputs": [
        {
          "internalType": "bool",
          "name": "",
          "type": "bool"
        }
      ],
      "stateMutability": "pure",
      "type": "function"
    },
    {
      "inputs": [],
      "name": "totalSupply",
      "outputs": [
        {
          "internalType": "uint256",
          "name": "",
          "type": "uint256"
        }
      ],
      "stateMutability": "view",
      "type": "function"
    },
    {
      "inputs": [
        {
          "internalType": "address",
          "name": "_owner",
          "type": "address"
        }
      ],
      "name": "balanceOf",
      "outputs": [
        {
          "internalType": "uint256",
          "name": "count",
          "type": "uint256"
        }
      ],
      "stateMutability": "view",
      "type": "function"
    },
    {
      "inputs": [
        {
          "internalType": "uint256",
          "name": "_tokenId",
          "type": "uint256"
        }
      ],
      "name": "ownerOf",
      "outputs": [
        {
          "internalType": "address",
          "name": "owner",
          "type": "address"
        }
      ],
      "stateMutability": "view",
      "type": "function"
    },
    {
      "inputs": [
        {
          "internalType": "address",
          "name": "_to",
          "type": "address"
        },
        {
          "internalType": "uint256",
          "name": "_tokenId",
          "type": "uint256"
        }
      ],
      "name": "approve",
      "outputs": [],
      "stateMutability": "nonpayable",
      "type": "function"
    },
    {
      "inputs": [
        {
          "internalType": "address",
          "name": "_to",
          "type": "address"
        },
        {
          "internalType": "uint256",
          "name": "_tokenId",
          "type": "uint256"
        }
      ],
      "name": "transfer",
      "outputs": [],
      "stateMutability": "nonpayable",
      "type": "function"
    },
    {
      "inputs": [
        {
          "internalType": "address",
          "name": "_from",
          "type": "address"
        },
        {
          "internalType": "address",
          "name": "_to",
          "type": "address"
        },
        {
          "internalType": "uint256",
          "name": "_tokenId",
          "type": "uint256"
        }
      ],
      "name": "transferFrom",
      "outputs": [],
      "stateMutability": "nonpayable",
      "type": "function"
    },
    {
      "inputs": [
        {
          "internalType": "address",
          "name": "_owner",
          "type": "address"
        }
      ],
      "name": "tokensOfOwner",
      "outputs": [
        {
          "internalType": "uint256[]",
          "name": "ownerTokens",
          "type": "uint256[]"
        }
      ],
      "stateMutability": "view",
      "type": "function"
    }
  ],
  "bytecode": "0x608060405234801561001057600080fd5b50610931806100206000396000f3fe608060405234801561001057600080fd5b50600436106100d45760003560e01c80636352211e1161008157806395d89b411161005b57806395d89b4114610225578063a45f4bfc14610261578063a9059cbb1461028a57600080fd5b80636352211e146101c957806370a08231146101dc5780638462151c1461020557600080fd5b806318160ddd116100b257806318160ddd1461015f57806323b872dd14610175578063481af3d31461018857600080fd5b806301ffc9a7146100d957806306fdde0314610101578063095ea7b31461014a575b600080fd5b6100ec6100e736600461077c565b61029d565b60405190151581526020015b60405180910390f35b61013d6040518060400160405280600b81526020017f4976616e4b69747469657300000000000000000000000000000000000000000081525081565b6040516100f8919061081b565b61015d610158366004610752565b610336565b005b6101676103da565b6040519081526020016100f8565b61015d610183366004610716565b6103ef565b6101b16101963660046107be565b6003602052600090815260409020546001600160a01b031681565b6040516001600160a01b0390911681526020016100f8565b6101b16101d73660046107be565b61045b565b6101676101ea3660046106f4565b6001600160a01b031660009081526002602052604090205490565b6102186102133660046106f4565b610482565b6040516100f891906107d7565b61013d6040518060400160405280600281526020017f434b00000000000000000000000000000000000000000000000000000000000081525081565b6101b161026f3660046107be565b6001602052600090815260409020546001600160a01b031681565b61015d610298366004610752565b61058c565b60007fffffffff0000000000000000000000000000000000000000000000000000000082167f01ffc9a700000000000000000000000000000000000000000000000000000000148061033057507fffffffff0000000000000000000000000000000000000000000000000000000082167f9a20483d00000000000000000000000000000000000000000000000000000000145b92915050565b6000818152600160205260409020546001600160a01b0316331461035957600080fd5b6000818152600360205260409020805473ffffffffffffffffffffffffffffffffffffffff19166001600160a01b038416179055604080513381526001600160a01b03841660208201529081018290527f8c5be1e5ebec7d5bd14f71427d1e84f3dd0314c0f7b2291e5b200ac8c7c3b9259060600160405180910390a15050565b600080546103ea90600190610870565b905090565b6001600160a01b03821661040257600080fd5b6000818152600360205260409020546001600160a01b0316331461042557600080fd5b6000818152600160205260409020546001600160a01b0384811691161461044b57600080fd5b6104568383836105d1565b505050565b6000818152600160205260409020546001600160a01b03168061047d57600080fd5b919050565b606060006104a5836001600160a01b031660009081526002602052604090205490565b9050806104c2575050604080516000815260208101909152919050565b60008167ffffffffffffffff8111156104dd576104dd6108e5565b604051908082528060200260200182016040528015610506578160200160208202803683370190505b50905060006105136103da565b9050600060015b828111610581576000818152600160205260409020546001600160a01b038881169116141561056f5780848381518110610556576105566108cf565b60209081029190910101528161056b8161089e565b9250505b806105798161089e565b91505061051a565b509195945050505050565b6001600160a01b03821661059f57600080fd5b6000818152600160205260409020546001600160a01b031633146105c257600080fd5b6105cd3383836105d1565b5050565b6001600160a01b03821660009081526002602052604081208054916105f58361089e565b90915550506000818152600160205260409020805473ffffffffffffffffffffffffffffffffffffffff19166001600160a01b038481169190911790915583161561068d576001600160a01b038316600090815260026020526040812080549161065e83610887565b90915550506000818152600360205260409020805473ffffffffffffffffffffffffffffffffffffffff191690555b604080516001600160a01b038086168252841660208201529081018290527fddf252ad1be2c89b69c2b068fc378daa952ba7f163c4a11628f55a4df523b3ef9060600160405180910390a1505050565b80356001600160a01b038116811461047d57600080fd5b60006020828403121561070657600080fd5b61070f826106dd565b9392505050565b60008060006060848603121561072b57600080fd5b610734846106dd565b9250610742602085016106dd565b9150604084013590509250925092565b6000806040838503121561076557600080fd5b61076e836106dd565b946020939093013593505050565b60006020828403121561078e57600080fd5b81357fffffffff000000000000000000000000000000000000000000000000000000008116811461070f57600080fd5b6000602082840312156107d057600080fd5b5035919050565b6020808252825182820181905260009190848201906040850190845b8181101561080f578351835292840192918401916001016107f3565b50909695505050505050565b600060208083528351808285015260005b818110156108485785810183015185820160400152820161082c565b8181111561085a576000604083870101525b50601f01601f1916929092016040019392505050565b600082821015610882576108826108b9565b500390565b600081610896576108966108b9565b506000190190565b60006000198214156108b2576108b26108b9565b5060010190565b634e487b7160e01b600052601160045260246000fd5b634e487b7160e01b600052603260045260246000fd5b634e487b7160e01b600052604160045260246000fdfea2646970667358221220662ec13314cd5582d31fa97badbcfff1dba6aa3ba85a57ea8e35c42e06ddd69d64736f6c63430008060033",
  "immutableReferences": {},
  "source": "pragma solidity ^0.8.0;\r\n// SPDX-License-Identifier: GPL-3.0\r\n\r\nimport \"./KittyFactory.sol\";\r\n\r\ncontract KittyOwnership is KittyFactory{\r\n\r\n  string public constant name = \"IvanKitties\";\r\n  string public constant symbol = \"CK\";\r\n\r\n  //event Transfer(address from, address to, uint256 tokenId);\r\n  event Approval(address owner, address approved, uint256 tokenId);\r\n\r\n  /*\r\n  *    We use the modulo of each function to set the interfaceId\r\n  */\r\n  bytes4 constant InterfaceSignature_ERC165 =\r\n      bytes4(keccak256('supportsInterface(bytes4)'));\r\n\r\n  bytes4 constant InterfaceSignature_ERC721 =\r\n      bytes4(keccak256('name()')) ^\r\n      bytes4(keccak256('symbol()')) ^\r\n      bytes4(keccak256('totalSupply()')) ^\r\n      bytes4(keccak256('balanceOf(address)')) ^\r\n      bytes4(keccak256('ownerOf(uint256)')) ^\r\n      bytes4(keccak256('approve(address,uint256)')) ^\r\n      bytes4(keccak256('transfer(address,uint256)')) ^\r\n      bytes4(keccak256('transferFrom(address,address,uint256)')) ^\r\n      bytes4(keccak256('tokensOfOwner(address)')) ^\r\n      bytes4(keccak256('tokenMetadata(uint256,string)'));\r\n\r\n  function supportsInterface(bytes4 _interfaceID) external pure returns (bool)\r\n  {\r\n      return ((_interfaceID == InterfaceSignature_ERC165) || (_interfaceID == InterfaceSignature_ERC721));\r\n  }\r\n\r\n  function _owns(address _claimant, uint256 _tokenId) internal view returns (bool) {\r\n      return kittyIndexToOwner[_tokenId] == _claimant;\r\n  }\r\n\r\n  function _approvedFor(address _claimant, uint256 _tokenId) internal view returns (bool) {\r\n      return kittyIndexToApproved[_tokenId] == _claimant;\r\n  }\r\n\r\n  function _approve(uint256 _tokenId, address _approved) internal {\r\n      kittyIndexToApproved[_tokenId] = _approved;\r\n  }\r\n\r\n  function _deleteApproval(uint256 _tokenId) internal {\r\n      require(_owns(msg.sender, _tokenId));\r\n      delete kittyIndexToApproved[_tokenId];\r\n  }\r\n\r\n\r\n  /*\r\n  *   Function required by the erc 721 interface\r\n  */\r\n\r\n  function totalSupply() public view returns (uint) {\r\n      return kitties.length - 1;\r\n  }\r\n\r\n  function balanceOf(address _owner) public view returns (uint256 count) {\r\n      return ownershipTokenCount[_owner];\r\n  }\r\n\r\n  function ownerOf(uint256 _tokenId)\r\n      external\r\n      view\r\n      returns (address owner)\r\n  {\r\n      owner = kittyIndexToOwner[_tokenId];\r\n\r\n      require(owner != address(0));\r\n  }\r\n\r\n  function approve(\r\n      address _to,\r\n      uint256 _tokenId\r\n  )\r\n      public\r\n  {\r\n      require(_owns(msg.sender, _tokenId));\r\n\r\n      _approve(_tokenId, _to);\r\n      emit Approval(msg.sender, _to, _tokenId);\r\n  }\r\n\r\n  function transfer(\r\n      address _to,\r\n      uint256 _tokenId\r\n  )\r\n      public\r\n  {\r\n      require(_to != address(0));\r\n      require(_owns(msg.sender, _tokenId));\r\n\r\n      _transfer(msg.sender, _to, _tokenId);\r\n  }\r\n\r\n  function transferFrom(\r\n      address _from,\r\n      address _to,\r\n      uint256 _tokenId\r\n  )\r\n      public\r\n  {\r\n      require(_to != address(0));\r\n      require(_approvedFor(msg.sender, _tokenId));\r\n      require(_owns(_from, _tokenId));\r\n\r\n      _transfer(_from, _to, _tokenId);\r\n  }\r\n\r\n  function tokensOfOwner(address _owner) public view returns(uint256[] memory ownerTokens) {\r\n    uint256 tokenCount = balanceOf(_owner);\r\n\r\n    if (tokenCount == 0) {\r\n        return new uint256[](0);\r\n    } else {\r\n        uint256[] memory result = new uint256[](tokenCount);\r\n        uint256 totalCats = totalSupply();\r\n        uint256 resultIndex = 0;\r\n\r\n        uint256 catId;\r\n\r\n        for (catId = 1; catId <= totalCats; catId++) {\r\n            if (kittyIndexToOwner[catId] == _owner) {\r\n                result[resultIndex] = catId;\r\n                resultIndex++;\r\n            }\r\n        }\r\n\r\n        return result;\r\n    }\r\n  }\r\n}",
  "sourcePath": "C:\\Users\\benX\\Documents\\ethereum_course_advanced\\academy-cryptokitties\\contracts\\KittyOwnership.sol",
  "compiler": {
    "name": "solc",
    "version": "0.8.6+commit.11564f7e.Emscripten.clang"
  },
  "schemaVersion": "3.4.2",
  "updatedAt": "2021-08-09T18:47:58.083Z",
  "devdoc": {
    "kind": "dev",
    "methods": {},
    "version": 1
  },
  "userdoc": {
    "kind": "user",
    "methods": {},
    "version": 1
  }
}