{
  "contractName": "KittyMarketPlace",
  "abi": [
    {
      "anonymous": false,
      "inputs": [
        {
          "indexed": false,
          "internalType": "address",
          "name": "owner",
          "type": "address"
        },
        {
          "indexed": false,
          "internalType": "address",
          "name": "approved",
          "type": "address"
        },
        {
          "indexed": false,
          "internalType": "uint256",
          "name": "tokenId",
          "type": "uint256"
        }
      ],
      "name": "Approval",
      "type": "event"
    },
    {
      "anonymous": false,
      "inputs": [
        {
          "indexed": false,
          "internalType": "address",
          "name": "owner",
          "type": "address"
        },
        {
          "indexed": false,
          "internalType": "uint256",
          "name": "kittyId",
          "type": "uint256"
        },
        {
          "indexed": false,
          "internalType": "uint256",
          "name": "mumId",
          "type": "uint256"
        },
        {
          "indexed": false,
          "internalType": "uint256",
          "name": "dadId",
          "type": "uint256"
        },
        {
          "indexed": false,
          "internalType": "uint256",
          "name": "genes",
          "type": "uint256"
        }
      ],
      "name": "Birth",
      "type": "event"
    },
    {
      "anonymous": false,
      "inputs": [
        {
          "indexed": false,
          "internalType": "string",
          "name": "TxType",
          "type": "string"
        },
        {
          "indexed": false,
          "internalType": "address",
          "name": "owner",
          "type": "address"
        },
        {
          "indexed": false,
          "internalType": "uint256",
          "name": "tokenId",
          "type": "uint256"
        }
      ],
      "name": "MarketTransaction",
      "type": "event"
    },
    {
      "anonymous": false,
      "inputs": [
        {
          "indexed": false,
          "internalType": "address",
          "name": "from",
          "type": "address"
        },
        {
          "indexed": false,
          "internalType": "address",
          "name": "to",
          "type": "address"
        },
        {
          "indexed": false,
          "internalType": "uint256",
          "name": "tokenId",
          "type": "uint256"
        }
      ],
      "name": "Transfer",
      "type": "event"
    },
    {
      "inputs": [
        {
          "internalType": "address",
          "name": "_to",
          "type": "address"
        },
        {
          "internalType": "uint256",
          "name": "_tokenId",
          "type": "uint256"
        }
      ],
      "name": "approve",
      "outputs": [],
      "stateMutability": "nonpayable",
      "type": "function"
    },
    {
      "inputs": [
        {
          "internalType": "address",
          "name": "_owner",
          "type": "address"
        }
      ],
      "name": "balanceOf",
      "outputs": [
        {
          "internalType": "uint256",
          "name": "count",
          "type": "uint256"
        }
      ],
      "stateMutability": "view",
      "type": "function"
    },
    {
      "inputs": [
        {
          "internalType": "uint256",
          "name": "",
          "type": "uint256"
        }
      ],
      "name": "kittyIndexToApproved",
      "outputs": [
        {
          "internalType": "address",
          "name": "",
          "type": "address"
        }
      ],
      "stateMutability": "view",
      "type": "function"
    },
    {
      "inputs": [
        {
          "internalType": "uint256",
          "name": "",
          "type": "uint256"
        }
      ],
      "name": "kittyIndexToOwner",
      "outputs": [
        {
          "internalType": "address",
          "name": "",
          "type": "address"
        }
      ],
      "stateMutability": "view",
      "type": "function"
    },
    {
      "inputs": [],
      "name": "name",
      "outputs": [
        {
          "internalType": "string",
          "name": "",
          "type": "string"
        }
      ],
      "stateMutability": "view",
      "type": "function"
    },
    {
      "inputs": [
        {
          "internalType": "uint256",
          "name": "_tokenId",
          "type": "uint256"
        }
      ],
      "name": "ownerOf",
      "outputs": [
        {
          "internalType": "address",
          "name": "owner",
          "type": "address"
        }
      ],
      "stateMutability": "view",
      "type": "function"
    },
    {
      "inputs": [
        {
          "internalType": "bytes4",
          "name": "_interfaceID",
          "type": "bytes4"
        }
      ],
      "name": "supportsInterface",
      "outputs": [
        {
          "internalType": "bool",
          "name": "",
          "type": "bool"
        }
      ],
      "stateMutability": "pure",
      "type": "function"
    },
    {
      "inputs": [],
      "name": "symbol",
      "outputs": [
        {
          "internalType": "string",
          "name": "",
          "type": "string"
        }
      ],
      "stateMutability": "view",
      "type": "function"
    },
    {
      "inputs": [
        {
          "internalType": "address",
          "name": "_owner",
          "type": "address"
        }
      ],
      "name": "tokensOfOwner",
      "outputs": [
        {
          "internalType": "uint256[]",
          "name": "ownerTokens",
          "type": "uint256[]"
        }
      ],
      "stateMutability": "view",
      "type": "function"
    },
    {
      "inputs": [],
      "name": "totalSupply",
      "outputs": [
        {
          "internalType": "uint256",
          "name": "",
          "type": "uint256"
        }
      ],
      "stateMutability": "view",
      "type": "function"
    },
    {
      "inputs": [
        {
          "internalType": "address",
          "name": "_to",
          "type": "address"
        },
        {
          "internalType": "uint256",
          "name": "_tokenId",
          "type": "uint256"
        }
      ],
      "name": "transfer",
      "outputs": [],
      "stateMutability": "nonpayable",
      "type": "function"
    },
    {
      "inputs": [
        {
          "internalType": "address",
          "name": "_from",
          "type": "address"
        },
        {
          "internalType": "address",
          "name": "_to",
          "type": "address"
        },
        {
          "internalType": "uint256",
          "name": "_tokenId",
          "type": "uint256"
        }
      ],
      "name": "transferFrom",
      "outputs": [],
      "stateMutability": "nonpayable",
      "type": "function"
    },
    {
      "inputs": [
        {
          "internalType": "uint256",
          "name": "_tokenId",
          "type": "uint256"
        }
      ],
      "name": "getOffer",
      "outputs": [
        {
          "internalType": "address",
          "name": "seller",
          "type": "address"
        },
        {
          "internalType": "uint256",
          "name": "price",
          "type": "uint256"
        },
        {
          "internalType": "uint256",
          "name": "tokenId",
          "type": "uint256"
        }
      ],
      "stateMutability": "view",
      "type": "function"
    },
    {
      "inputs": [],
      "name": "getAllTokenOnSale",
      "outputs": [
        {
          "internalType": "uint256[]",
          "name": "listOfToken",
          "type": "uint256[]"
        }
      ],
      "stateMutability": "view",
      "type": "function"
    },
    {
      "inputs": [
        {
          "internalType": "uint256",
          "name": "_price",
          "type": "uint256"
        },
        {
          "internalType": "uint256",
          "name": "_tokenId",
          "type": "uint256"
        }
      ],
      "name": "setOffer",
      "outputs": [],
      "stateMutability": "nonpayable",
      "type": "function"
    },
    {
      "inputs": [
        {
          "internalType": "uint256",
          "name": "_tokenId",
          "type": "uint256"
        }
      ],
      "name": "removeOffer",
      "outputs": [],
      "stateMutability": "nonpayable",
      "type": "function"
    },
    {
      "inputs": [
        {
          "internalType": "uint256",
          "name": "_tokenId",
          "type": "uint256"
        }
      ],
      "name": "buyKitty",
      "outputs": [],
      "stateMutability": "payable",
      "type": "function"
    }
  ],
  "bytecode": "0x608060405234801561001057600080fd5b50611269806100206000396000f3fe60806040526004361061010e5760003560e01c80636352211e116100a557806395a0f9c711610074578063a45f4bfc11610059578063a45f4bfc146103db578063a9059cbb14610411578063ae5310f61461043157600080fd5b806395a0f9c71461037257806395d89b411461039257600080fd5b80636352211e146102dc57806370a08231146102fc5780638462151c14610332578063941b055b1461035257600080fd5b806323b872dd116100e157806323b872dd146101e35780634579268a14610203578063481af3d31461026c57806349b3709f146102ba57600080fd5b806301ffc9a71461011357806306fdde0314610148578063095ea7b31461019e57806318160ddd146101c0575b600080fd5b34801561011f57600080fd5b5061013361012e366004611092565b610444565b60405190151581526020015b60405180910390f35b34801561015457600080fd5b506101916040518060400160405280600b81526020017f4976616e4b69747469657300000000000000000000000000000000000000000081525081565b60405161013f9190611153565b3480156101aa57600080fd5b506101be6101b9366004611068565b6104dd565b005b3480156101cc57600080fd5b506101d5610575565b60405190815260200161013f565b3480156101ef57600080fd5b506101be6101fe36600461102c565b61058a565b34801561020f57600080fd5b5061024761021e3660046110d4565b6000908152600560205260409020805460018201546002909201546001600160a01b0390911692565b604080516001600160a01b03909416845260208401929092529082015260600161013f565b34801561027857600080fd5b506102a26102873660046110d4565b6003602052600090815260409020546001600160a01b031681565b6040516001600160a01b03909116815260200161013f565b3480156102c657600080fd5b506102cf6105f6565b60405161013f919061110f565b3480156102e857600080fd5b506102a26102f73660046110d4565b6106f0565b34801561030857600080fd5b506101d561031736600461100a565b6001600160a01b031660009081526002602052604090205490565b34801561033e57600080fd5b506102cf61034d36600461100a565b610717565b34801561035e57600080fd5b506101be61036d3660046110ed565b610821565b34801561037e57600080fd5b506101be61038d3660046110d4565b610abd565b34801561039e57600080fd5b506101916040518060400160405280600281526020017f434b00000000000000000000000000000000000000000000000000000000000081525081565b3480156103e757600080fd5b506102a26103f63660046110d4565b6001602052600090815260409020546001600160a01b031681565b34801561041d57600080fd5b506101be61042c366004611068565b610cbd565b6101be61043f3660046110d4565b610d02565b60007fffffffff0000000000000000000000000000000000000000000000000000000082167f01ffc9a70000000000000000000000000000000000000000000000000000000014806104d757507fffffffff0000000000000000000000000000000000000000000000000000000082167f9a20483d00000000000000000000000000000000000000000000000000000000145b92915050565b6000818152600160205260409020546001600160a01b0316331461050057600080fd5b600081815260036020526040902080546001600160a01b0319166001600160a01b038416179055604080513381526001600160a01b03841660208201529081018290527f8c5be1e5ebec7d5bd14f71427d1e84f3dd0314c0f7b2291e5b200ac8c7c3b925906060015b60405180910390a15050565b60008054610585906001906111a8565b905090565b6001600160a01b03821661059d57600080fd5b6000818152600360205260409020546001600160a01b031633146105c057600080fd5b6000818152600160205260409020546001600160a01b038481169116146105e657600080fd5b6105f1838383610ec0565b505050565b6004546060908061061557505060408051600081526020810190915290565b60008167ffffffffffffffff8111156106305761063061121d565b604051908082528060200260200182016040528015610659578160200160208202803683370190505b50905060005b828110156106e9576004818154811061067a5761067a611207565b9060005260206000209060030201600101546000146106d757600481815481106106a6576106a6611207565b9060005260206000209060030201600201548282815181106106ca576106ca611207565b6020026020010181815250505b806106e1816111d6565b91505061065f565b5092915050565b6000818152600160205260409020546001600160a01b03168061071257600080fd5b919050565b6060600061073a836001600160a01b031660009081526002602052604090205490565b905080610757575050604080516000815260208101909152919050565b60008167ffffffffffffffff8111156107725761077261121d565b60405190808252806020026020018201604052801561079b578160200160208202803683370190505b50905060006107a8610575565b9050600060015b828111610816576000818152600160205260409020546001600160a01b038881169116141561080457808483815181106107eb576107eb611207565b602090810291909101015281610800816111d6565b9250505b8061080e816111d6565b9150506107af565b509195945050505050565b661ff973cafa800082116108a25760405162461bcd60e51b815260206004820152602560248201527f4361742070726963652073686f756c642062652067726561746572207468616e60448201527f20302e303100000000000000000000000000000000000000000000000000000060648201526084015b60405180910390fd5b600081815260056020526040902060010154156109275760405162461bcd60e51b815260206004820152602560248201527f596f752063616e27742073656c6c207477696365207468652073616d65206f6660448201527f66657273200000000000000000000000000000000000000000000000000000006064820152608401610899565b61093130826104dd565b60408051606081018252338152602080820185815282840185815260008681526005909352938220835181546001600160a01b039182166001600160a01b031991821617835583516001808501919091558751600290940193909355600480548085018255818752875160039091027f8a35acfbc15ff81a39ae7d344fd709f28e8600b4aa8c65c6b64bfe7fe36bd19b8101805492909516919093161790925592517f8a35acfbc15ff81a39ae7d344fd709f28e8600b4aa8c65c6b64bfe7fe36bd19c84015594517f8a35acfbc15ff81a39ae7d344fd709f28e8600b4aa8c65c6b64bfe7fe36bd19d90920191909155925491929091610a3191906111a8565b60008481526006602090815260409182902083905581516060808252600c908201527f437265617465206f666665720000000000000000000000000000000000000000608082015233918101919091529081018590529091507fd99e4fad9ad6313b1feb588fa8e605e3a9873172f2024330c35dd2b4041a43869060a00160405180910390a150505050565b6000818152600160205260409020546001600160a01b03163314610b235760405162461bcd60e51b815260206004820152601e60248201527f546865207573657220646f65736e2774206f776e2074686520746f6b656e00006044820152606401610899565b600081815260056020908152604091829020825160608101845281546001600160a01b0316808252600183015493820193909352600290910154928101929092523314610bd85760405162461bcd60e51b815260206004820152603860248201527f596f752073686f756c64206f776e20746865206b6974747920746f206265206160448201527f626c6520746f2072656d6f76652074686973206f6666657200000000000000006064820152608401610899565b600082815260066020526040902054600480549091908110610bfc57610bfc611207565b60009182526020808320600390920290910180546001600160a01b0319908116825560018083018590556002928301859055868552600590935260408420805490911681559182018390550155610c5282610fb2565b604080516060808252600c908201527f52656d6f7665206f66666572000000000000000000000000000000000000000060808201523360208201529081018390527fd99e4fad9ad6313b1feb588fa8e605e3a9873172f2024330c35dd2b4041a43869060a001610569565b6001600160a01b038216610cd057600080fd5b6000818152600160205260409020546001600160a01b03163314610cf357600080fd5b610cfe338383610ec0565b5050565b600081815260056020908152604091829020825160608101845281546001600160a01b031681526001820154928101839052600290910154928101929092523414610d8f5760405162461bcd60e51b815260206004820152601860248201527f546865207072696365206973206e6f7420636f727265637400000000000000006044820152606401610899565b600082815260066020526040902054600480549091908110610db357610db3611207565b6000918252602080832060039283020180546001600160a01b03199081168255600180830186905560029283018690558786526005845260408087208054841681559182018790559201859055929091529091208054339216821790558151610e1c918461058a565b80516040516001600160a01b03909116903480156108fc02916000818181858888f19350505050158015610e54573d6000803e3d6000fd5b506040805160608082526003908201527f427579000000000000000000000000000000000000000000000000000000000060808201523360208201529081018390527fd99e4fad9ad6313b1feb588fa8e605e3a9873172f2024330c35dd2b4041a43869060a001610569565b6001600160a01b0382166000908152600260205260408120805491610ee4836111d6565b9091555050600081815260016020526040902080546001600160a01b0319166001600160a01b0384811691909117909155831615610f62576001600160a01b0383166000908152600260205260408120805491610f40836111bf565b9091555050600081815260036020526040902080546001600160a01b03191690555b604080516001600160a01b038086168252841660208201529081018290527fddf252ad1be2c89b69c2b068fc378daa952ba7f163c4a11628f55a4df523b3ef9060600160405180910390a1505050565b6000818152600160205260409020546001600160a01b03163314610fd557600080fd5b600090815260036020526040902080546001600160a01b0319169055565b80356001600160a01b038116811461071257600080fd5b60006020828403121561101c57600080fd5b61102582610ff3565b9392505050565b60008060006060848603121561104157600080fd5b61104a84610ff3565b925061105860208501610ff3565b9150604084013590509250925092565b6000806040838503121561107b57600080fd5b61108483610ff3565b946020939093013593505050565b6000602082840312156110a457600080fd5b81357fffffffff000000000000000000000000000000000000000000000000000000008116811461102557600080fd5b6000602082840312156110e657600080fd5b5035919050565b6000806040838503121561110057600080fd5b50508035926020909101359150565b6020808252825182820181905260009190848201906040850190845b818110156111475783518352928401929184019160010161112b565b50909695505050505050565b600060208083528351808285015260005b8181101561118057858101830151858201604001528201611164565b81811115611192576000604083870101525b50601f01601f1916929092016040019392505050565b6000828210156111ba576111ba6111f1565b500390565b6000816111ce576111ce6111f1565b506000190190565b60006000198214156111ea576111ea6111f1565b5060010190565b634e487b7160e01b600052601160045260246000fd5b634e487b7160e01b600052603260045260246000fd5b634e487b7160e01b600052604160045260246000fdfea2646970667358221220018ef656c27ae5db3c00907c00544a7c148ad57c7cca4b179fe586a14494f86264736f6c63430008060033",
  "immutableReferences": {},
  "source": "import \"./KittyOwnership.sol\";\r\n\r\npragma solidity ^0.8.0;\r\n// SPDX-License-Identifier: GPL-3.0\r\n\r\ncontract KittyMarketPlace is KittyOwnership {\r\n\r\n  struct Offer {\r\n    address payable seller;\r\n    uint256 price;\r\n    uint256 tokenId;\r\n  }\r\n\r\n  Offer[] offers;\r\n\r\n  mapping (uint256 => Offer) tokenIdToOffer;\r\n  mapping (uint256 => uint256) tokenIdToOfferId;\r\n\r\n\r\n  event MarketTransaction(string TxType, address owner, uint256 tokenId);\r\n\r\n  function getOffer(uint256 _tokenId)\r\n      public\r\n      view\r\n      returns\r\n  (\r\n      address seller,\r\n      uint256 price,\r\n      uint256 tokenId\r\n\r\n  ) {\r\n      Offer storage offer = tokenIdToOffer[_tokenId];\r\n      return (\r\n          offer.seller,\r\n          offer.price,\r\n          offer.tokenId\r\n      );\r\n  }\r\n\r\n\r\n  function getAllTokenOnSale() public view returns(uint256[] memory listOfToken){\r\n    uint256 totalOffers = offers.length;\r\n    \r\n    if (totalOffers == 0) {\r\n        return new uint256[](0);\r\n    } else {\r\n  \r\n      uint256[] memory resultOfToken = new uint256[](totalOffers);\r\n\r\n      uint256 offerId;\r\n  \r\n      for (offerId = 0; offerId < totalOffers; offerId++) {\r\n        if(offers[offerId].price != 0){\r\n          resultOfToken[offerId] = offers[offerId].tokenId;\r\n        }\r\n      }\r\n      return resultOfToken;\r\n    }\r\n  }\r\n\r\n  function setOffer(uint256 _price, uint256 _tokenId)\r\n    public\r\n  {\r\n    /*\r\n    *   We give the contract the ability to transfer kitties\r\n    *   As the kitties will be in the market place we need to be able to transfert them\r\n    *   We are checking if the user is owning the kitty inside the approve function\r\n    */\r\n    require(_price > 0.009 ether, \"Cat price should be greater than 0.01\");\r\n    require(tokenIdToOffer[_tokenId].price == 0, \"You can't sell twice the same offers \");\r\n\r\n    approve(address(this), _tokenId);\r\n\r\n    Offer memory _offer = Offer({\r\n      seller: (payable(msg.sender)),\r\n      price: _price,\r\n      tokenId: _tokenId\r\n    });\r\n\r\n    tokenIdToOffer[_tokenId] = _offer;\r\n\r\n    offers.push(_offer);\r\n\r\n    uint256 index = offers.length -1;\r\n\r\n    //uint256 index = offers.push(_offer) - 1;\r\n\r\n    tokenIdToOfferId[_tokenId] = index;\r\n\r\n    emit MarketTransaction(\"Create offer\", msg.sender, _tokenId);\r\n  }\r\n\r\n  function removeOffer(uint256 _tokenId)\r\n    public\r\n  {\r\n    require(_owns(msg.sender, _tokenId), \"The user doesn't own the token\");\r\n\r\n    Offer memory offer = tokenIdToOffer[_tokenId];\r\n\r\n    require(offer.seller == msg.sender, \"You should own the kitty to be able to remove this offer\");\r\n\r\n    /* we delete the offer info */\r\n    delete offers[tokenIdToOfferId[_tokenId]];\r\n\r\n    /* Remove the offer in the mapping*/\r\n    delete tokenIdToOffer[_tokenId];\r\n\r\n\r\n    _deleteApproval(_tokenId);\r\n\r\n    emit MarketTransaction(\"Remove offer\", msg.sender, _tokenId);\r\n  }\r\n\r\n  function buyKitty(uint256 _tokenId)\r\n    public\r\n    payable\r\n  {\r\n    Offer memory offer = tokenIdToOffer[_tokenId];\r\n    require(msg.value == offer.price, \"The price is not correct\");\r\n\r\n    /* we delete the offer info */\r\n    delete offers[tokenIdToOfferId[_tokenId]];\r\n\r\n    /* Remove the offer in the mapping*/\r\n    delete tokenIdToOffer[_tokenId];\r\n\r\n    /* TMP REMOVE THIS*/\r\n    _approve(_tokenId, msg.sender);\r\n\r\n\r\n    transferFrom(offer.seller, msg.sender, _tokenId);\r\n\r\n    offer.seller.transfer(msg.value);\r\n    emit MarketTransaction(\"Buy\", msg.sender, _tokenId);\r\n  }\r\n}\r\n",
  "sourcePath": "C:\\Users\\benX\\Documents\\ethereum_course_advanced\\academy-cryptokitties\\contracts\\KittyMarketPlace.sol",
  "compiler": {
    "name": "solc",
    "version": "0.8.6+commit.11564f7e.Emscripten.clang"
  },
  "schemaVersion": "3.4.2",
  "updatedAt": "2021-08-09T18:47:58.077Z",
  "devdoc": {
    "kind": "dev",
    "methods": {},
    "version": 1
  },
  "userdoc": {
    "kind": "user",
    "methods": {},
    "version": 1
  }
}